:020000040800F2
:1000000028040020C5000008C90A0008590A000891
:1000100000000000000000000000000000000000E0
:10002000000000000000000000000000130B0008AA
:100030000000000000000000110B0008150B000874
:10004000D700000800000000D7000008D700000813
:10005000D7000008D7000008D7000008D700000824
:1000600000000000D7000008D7000008D7000008F3
:10007000D7000008D7000008D700000800000000E3
:10008000D70000080000000000000000D7000008B2
:1000900000000000D7000008D7000008D7000008C3
:1000A00000000000D700000800000000D700000892
:1000B0000348854600F0B0F800480047E50B00080B
:1000C000280400200448804704480047FEE7FEE774
:1000D000FEE7FEE7FEE7FEE7690B0008B100000857
:1000E00030B50B46014600202022012409E00D46D0
:1000F000D5409D4205D31D469540491B2546954058
:1001000040191546521E002DF1DC30BDD2B201E07F
:100110000270401C491EFBD270470022F6E710B562
:1001200013460A4604461946FFF7F0FF204610BD65
:10013000420005D04200120E52428A4201DB0020EA
:100140007047C90508187047C217C10F504010B555
:100150004018CA079623002100F024F810BD10B5FE
:1001600000229623114600F01DF810BD0122D2078F
:10017000002800DB101A002900DB511A8142704769
:100180000122D207002800DB101A002900DB511AD7
:1001900088427047002904DA401C490001D1400818
:1001A0004000704770B40024050C05D110240004F1
:1001B00002D1002921D01124050E01D100020834FA
:1001C000050F01D10001241D850F01D18000A41C61
:1001D000002801DB4000641C002908D020252E1BCC
:1001E0000D46F540A14000D00121294308430106F6
:1001F0001B1B000ADB1D02D5002070BC7047DB050D
:10020000181880180029F8DA401C4900F5D170BC94
:100210004008400070470000064C0125064E05E0EE
:10022000E36807CC2B430C3C98471034B442F7D317
:10023000FFF742FF940E0008B40E000801B50098C5
:10024000C0000090411E009101D30846FAE708BDA6
:1002500031B500F01FF9009C0546601C00D0641CFD
:1002600000F018F9401BA042FAD338BDF0B50023C6
:1002700058E001229A4014460A4052D006685F00B6
:100280000325BD40AE43AC460660DD08AD002D1829
:100290002E6AAE465D07EF0E0F25BD40AE43754694
:1002A0002E6286686546AE4386604568A543456014
:1002B000C4686546AC43C4609D081C4CAD002D1954
:1002C000AF689C07260F0F24B440A4463C40092782
:1002D000FF06B84201D100270FE0154FB84201D107
:1002E00001270AE0134FB84201D1022705E0124F5F
:1002F000B84201D1032700E00527B740A74210D13B
:10030000AE686446A643AE600C4C256895432560F4
:10031000656895436560A5689543A560E568954364
:10032000E5605B1C0A46DA40A3D1F0BD0000014045
:100330000004004800080048000C00480004014088
:10034000F8B500238DE001249C40A44622407DD0D6
:100350004C68022C01D0122C0CD1DC08A400271808
:100360003C6A5D07ED0E0F26AE40B4430E69AE4009
:1003700026433E6205685E000324B4400F79A5431E
:10038000BF07BF0FB7402F4307604D68012D05D051
:10039000022D03D0112D01D0122D0ED18568CF680A
:1003A000A543B7402F43876047686546AF430D7943
:1003B000ED06ED0F9D403D434560C568A5438C6843
:1003C000B4402C43C4604C68E40049D5284CA5696E
:1003D00001263543A561A4699D0834400094254C4D
:1003E000AD002F19BC689D072E0F0F25B540AC43FB
:1003F0000925ED06A84201D100250FE01E4DA842B7
:1004000001D101250AE01D4DA84201D1022505E0D8
:100410001B4DA84201D1032500E00525B540254329
:10042000BD60184C25684E689543F60300D515430A
:10043000256065684E689543B60300D51543656031
:10044000A5684E689543F60202D500E008E0154322
:10045000A560E5684E689543B60200D51543E56092
:100460005B1C0A681446DC4000D06CE7F8BD000055
:10047000001002400000014000040048000800484D
:10048000000C004800040140002A01D0816170473F
:10049000816270470148006870470000200000201A
:1004A00002480168491C01607047000020000020DC
:1004B00010B506480168102211430160002000F0C9
:1004C00007F800F017F8002010BD000000200240DF
:1004D00010B5044600F0BCF87D21C900FFF700FE0E
:1004E00000F0A2FA00222146501E00F017F800206A
:1004F00010BD000008B508488169012211438161DF
:10050000816911400091C26901040A43C261C06956
:100510000840009008BD00000010024010B500F037
:10052000D5FA10BDF8B5054644480E460068C00728
:10053000C00FB0420AD2414801684908490031431E
:1005400001600068C007C00FB0425CD128783C4C05
:10055000800705D56068F0218843A968084360607A
:100560002878C0073FD06868012813D02168022886
:1005700013D08907002946DA616889088900014398
:100580006160FFF787FF6968074601290DD00229DE
:1005900017D024E021688903ECE78901EAE7FFF737
:1005A00079FFC11B2748814217D860680007800F78
:1005B0000128F4D117E0FFF76DFFC11B21488142EC
:1005C0000BD860680007800F0228F4D10BE0FFF71A
:1005D00061FFC11B1B48814201D90320F8BD60683F
:1005E0000007800FF3D115480168C907C90FB14250
:1005F0000BD9016849084900314301600068C00710
:10060000C00FB04201D00120F8BD2878400706D5C0
:100610006068072109028843E9680843606000F0C8
:100620001DF86168084A0906090F515CC84007496E
:1006300008600020FFF74CFF0020F8BD00200240BA
:100640000010024088130000840E000824000020DF
:1006500001480068704700002400002010B512A374
:100660000FCB88B06C460FC413A30FCB0FC4164931
:100670004A680C20134603401448042B0FD0082B63
:100680000DD193021B0F6C46E45CC96A04AB0907E9
:10069000090F595CD20304D5FFF722FD604308B06F
:1006A00010BD0B486043FAE702030405060708097A
:1006B0000A0B0C0D0E0F10100102030405060708AB
:1006C000090A0B0C0D0E0F100010024000127A00E8
:1006D00000093D00FEB504460078D04DC00747D064
:1006E00068680007800F012807D068680007800F3E
:1006F000022809D16868C00306D52868800337D569
:10070000606800287ED033E0012062680004012A7E
:1007100011D08100002A01D0052A10D02A68824316
:100720002A602868884328606068002814D0FFF792
:10073000B1FE06460CE0296801432960F4E72A6807
:100740000A432A60F7E7FFF7A5FE801B64286FD8ED
:1007500028688003F7D50BE0FFF79CFE064604E00F
:10076000FFF798FE801B6428F1D828688003F7D42F
:1007700020780126800700283BDA68680007800F90
:1007800007D068680007800F022809D16868C00395
:1007900006D42868800715D5E068012832D111E019
:1007A000E0680028286815D030432860FFF772FE03
:1007B000074604E0FFF76EFEC01B0228C7D8286872
:1007C0008007F7D52868F82188432169C9000843C4
:1007D00028600EE0400840002860FFF75BFE0746F7
:1007E00004E0FFF757FEC01B0228B0D82868800736
:1007F000F7D42078000724D5E0690028686A10D073
:10080000304300E008E16862FFF744FE074604E079
:10081000FFF740FEC01B022899D8686A8007F7D509
:100820000FE0400840006862FFF734FE074605E02D
:100830009DE0FFF72FFEC01B022888D8686A80075A
:10084000F7D4207804274007002860DA00200190C0
:10085000E869C00008D4E969B8060143E961E969BB
:1008600001400120009101906D480168C90511D433
:100870000168821511430160FFF70CFE009005E04E
:10088000FFF708FE0099401A642870D86448006891
:10089000C005F5D5A06801280AD0002801D0052898
:1008A00010D0286A400840002862286AB84301E056
:1008B000286A30432862A068002812D0FFF7EAFDBA
:1008C00000900AE0286A38432862F1E7FFF7E2FD6A
:1008D0000099411A5348814249D8286A8007F5D5C2
:1008E0000DE0FFF7D7FD009006E0FFF7D3FD00997C
:1008F000411A4C4881423AD8286A8007F5D40198B9
:10090000002804D0E969012000078143E9612078CB
:10091000C00635D5606901280CD0401D686B23D016
:1009200038436863686B400840006863FFF7B2FDB6
:10093000064622E0686B38436863686B304368633F
:10094000FFF7A8FD064604E0FFF7A4FD801B022880
:100950005BD8686B8007F7D5686BF8218843A1697D
:10096000C900084368630BE0B8436863F4E74CE0F0
:10097000FFF790FD801B022847D8686B8007F7D4EB
:10098000206A002846D069680907890F022943D0E8
:10099000012636060228286805D0B0432860FFF7F4
:1009A00079FD044633E0B0432860FFF773FD074646
:1009B00004E0FFF76FFDC01B022826D828688001DD
:1009C000F7D4E86AE16A000900010843E862616A55
:1009D000A06A084369683D22120491430843686095
:1009E000286830432860FFF755FD044604E0FFF710
:1009F00051FD001B022808D828688001F7D509E0BE
:100A0000FFF748FD001B022801D90320FEBD28681E
:100A10008001F5D40020FEBD0120FEBD0010024083
:100A20000070004088130000094910B5401E88423C
:100A300001D9012010BD074C60610321081F00F09F
:100A400045F80020A06107202061002010BD0000B3
:100A5000FFFFFF0000E000E0FEE7000070B586B099
:100A600014216846FFF759FB1548426901214904E2
:100A70000A43426142690A400592426949000A43B9
:100A8000426140690F4E0840059001220221304624
:100A9000FFF7FAFC00250124092001956946C006EC
:100AA00002950094FFF74CFC0220694631C10320F7
:100AB000039069463046FFF743FC06B070BD000066
:100AC0000010024000040048704700008307FF2226
:100AD000DB0E9A408907090E994000280BDA0007BF
:100AE000000F0838830808489B001818C36993430F
:100AF0000B43C3617047830804489B001B181868A8
:100B0000904308431860704700ED00E000E400E007
:100B10007047704710B5FFF7C3FC10BD30B591B0FA
:100B200030216846FFF7F9FA00240D940120039064
:100B30000E940225102009940490009505200F942E
:100B4000C0040A900C9408950B946846FFF7C2FD08
:100B500007200C900E9401210D950F940CA8FFF71F
:100B6000E1FC11B030BD00001348016801221143BF
:100B700001604168114A114041600168104A11400A
:100B800001600168012292049143016041683F22A3
:100B9000120491434160C16A09090901C162016BF4
:100BA000FF22143291430163416B490849004163BC
:100BB0000021816070470000001002400CB8FF085F
:100BC000FFFFF6FE02E008C8121F08C1002AFAD192
:100BD00070477047002001E001C1121F002AFBD1BD
:100BE00070470000FFF764FCFFF798FFFFF736FF40
:100BF0000024FF26534DF536002202212846FFF738
:100C000043FC3046FFF724FB012202212846FFF770
:100C10003BFC3046FFF71CFB641C022CECDB002283
:100C200002214848FFF730FC00F0E8F800F006F930
:100C3000454D00272C46183C002812D06420FFF7B1
:100C4000FDFA332000F0CDF83220FFF7F7FA677095
:100C500000F098F861786854491CC8B260700828A0
:100C6000F6D3256100F0EAF8FF200F30FFF7E6FA2F
:100C7000CC2000F0B6F84E2000F0B3F84B2000F086
:100C8000B0F8462000F0ADF87F2000F0AAF8192552
:100C90006D012846FFF7DCFA00F0D0F8FF260F368A
:100CA0003046FFF7CBFACC2000F09BF8442000F050
:100CB00098F82846FFF7CCFA00F0C0F83046FFF766
:100CC000BDFACC2000F08DF8BE2000F08AF81E207E
:100CD000FFF7B4FA6780277000F038F8217862884F
:100CE000884080186080491CC8B220701028F3D357
:100CF0006588E5802846FFF732FA0326F643314639
:100D0000FFF716FA60612805C00FA08008D0012007
:100D10000003281AFFF718FA3146FFF709FA606155
:100D2000A1686069FFF722FA01D2012205E0E168BB
:100D30006069FFF725FAAAD2002202210148FFF7D5
:100D4000A3FBA4E7000400481800002010B5092404
:100D5000E40660694008400060610520FFF76EFA14
:100D600060690121084360610520FFF767FA206987
:100D7000C407E40F1420FFF761FA0220FFF75EFAC0
:100D8000204610BD70B500252C46FFF7DFFFA040C0
:100D90004019C5B20220FFF751FA641CE4B2082CD6
:100DA000F3D3284670BD70B509240546E406606992
:100DB000400840006061002D01D0032000E02020A9
:100DC000FFF73CFA6069012108436061002D01D002
:100DD000282000E00C20FFF731FA0320FFF72EFA5D
:100DE00070BD70B5054600242846E040C007C00F1E
:100DF000FFF7D9FF641C082CF6DB70BD10B5092481
:100E0000E40686B001212046FFF730FA0A49486916
:100E10000122520410434861486969461040059018
:100E20000120009003200390112001902046FFF73D
:100E300087FA06B010BD00000010024070B5012511
:100E40000924E40665610A20FFF7F8F900206061D3
:100E5000FF200F30FFF7F2F965611020FFF7EEF980
:100E600000252069C00708D00120FFF7E7F96D1CB5
:100E7000EDB23C2DF5D3002070BD2069C007FCD039
:100E8000012070BD0000000000000000010203040A
:100E900006070809B40E0008000000202800000022
:100EA000C40B0008DC0E000828000020000400002D
:100EB000D40B000800000000000000000000A0406B
:100EC0000000F041000000000000000000000000F1
:0C0ED000000000000000000000127A008A
:04000005080000B13E
:00000001FF
